:100000000C94DA000C9493090C946C090C94450937
:100010000C941E090C9402010C9402010C94F70834
:100020000C9402010C945B0C0C94BA090C94290AF0
:100030000C9402010C9402010C9402010C94020134
:100040000C9402010C9402010C9402010C94020124
:100050000C9402010C9402010C9402010C94AD0862
:100060000C9402010C9402010C9402010C94020104
:100070000C9402010C9402010C9402010C940201F4
:100080000C9402010C9402010C9402010C940201E4
:100090000C9402010C9402010C9402010C940201D4
:1000A0000C9402010C94D70C0C940201080B000272
:1000B0000202000009040000010202000005240001
:1000C0001001052401010104240206052406000193
:1000D0000705810310004009040100020A00000026
:1000E00007050202400000070583024000000403E8
:1000F000090412010002EF020140FB1F002300016E
:1001000001020301506F6C6F6C7520436F72706F4A
:10011000726174696F6E00506F6C6F6C7520412D49
:100120005374617220333255340000000000240003
:1001300027002A002D0030000000000025002800C4
:100140002B002E00310000000000230026002900B3
:100150002C002F000404040404030405020202021C
:100160000403020202020606060606060404020250
:100170000204040408020110408040102040804026
:1001800080080204018040201002011080102040ED
:1001900040200000000200090F0000030401000CD1
:1001A000000000000000000000000000000000004F
:1001B0000000370D11241FBECFEFDAE0DEBFCDBF48
:1001C00013E0A0E0B1E0E8E1FEE202C005900D928C
:1001D000A432B107D9F724E0A4E2B3E001C01D9234
:1001E000A635B207E1F710E0CAEDD0E004C02197D0
:1001F000FE010E94A814C93DD107C9F70E944A0E0A
:100200000C940A170C9400004F925F926F927F92A9
:100210008F929F92AF92BF92CF92DF92EF92FF9216
:10022000CF93DF93CDB7DEB728970FB6F894DEBF34
:100230000FBECDBF4B015C012D833E834F8358879A
:10024000609154047091550490E080E00E94DC15A8
:1002500020E030E04AE754E40E9434156B017C0151
:1002600040904C0450904D0460904E0470904F04A8
:10027000A50194010E949316A30192010E943415D6
:100280000E94A61569837A838B839C8323EC35EFC8
:1002900048E450E4609150047091510480915204FC
:1002A000909153040E94931620E030E044E353E41D
:1002B0000E9434154B015C012D813E814F81588590
:1002C000C701B6010E9493169B01AC01C501B401A0
:1002D0000E949316A30192010E9434150E94A61554
:1002E0006B0169817A816C197D09072E000C880BDE
:1002F000990B0E94DE156093DF037093E0038093F7
:10030000E1039093E2038091DC03813081F010924D
:1003100003041092040410920504109206048091C4
:10032000E9039091EA039093E8038093E70381E067
:100330008093DC0389819A81C80ED91EB601DD0C39
:10034000880B990B0E94DE156093180470931904B2
:1003500080931A0490931B0480911504813081F0DE
:1003600010923C0410923D0410923E0410923F04FF
:10037000809122049091230490932104809320047F
:1003800081E08093150428960FB6F894DEBF0FBE67
:10039000CDBFDF91CF91FF90EF90DF90CF90BF90D6
:1003A000AF909F908F907F906F905F904F90089547
:1003B000FC0180917103882311F13FB7F89482E02A
:1003C0008093E9002091F200822F90E01816190620
:1003D00014F481E090E0882339F0289844E64093B3
:1003E00070034091F1004083222339F02091F20004
:1003F000211103C02BE62093E8003FBF08958FEF43
:100400009FEF08952FB7F89483E08093E9009091CF
:10041000E800892F807295FF04C09091F20080E47B
:10042000891B2FBF08958091680381110DC082E060
:100430008093640384E080936503109267031092B5
:10044000660381E08093680384E693E00895815019
:100450008F3008F047C0E82FF0E0EF5CFD4F0C94C0
:10046000A8144E025202400246024A02720272026E
:10047000720255025B025F026302690272026D0240
:10048000809180008F778093800008958091800014
:100490008F7DF9CF80918000877FF5CF84B58F77EE
:1004A00084BD089584B58F7DFBCF809190008F77B8
:1004B000809390000895809190008F7DF9CF809176
:1004C0009000877FF5CF8091C0008F778093C00028
:1004D00008958091C0008F7DF9CF8091C200877F01
:1004E0008093C2000895CF93DF93282F30E0F90165
:1004F000EE56FE4F8491F901ED58FE4FD491F9016B
:10050000EC5AFE4FC491CC23A1F081110E94270226
:10051000EC2FF0E0EE0FFF1FEA5BFE4FA591B491C8
:10052000EC91ED2381E090E009F480E0DF91CF9140
:10053000089580E090E0FACF1F93CF93DF93282FA8
:1005400030E0F901EE56FE4F8491F901ED58FE4F6F
:10055000D491F901EC5AFE4FC491CC23A9F0162F87
:1005600081110E942702EC2FF0E0EE0FFF1FE85CE4
:10057000FE4FA591B4918FB7F894EC91111108C07A
:10058000D095DE23DC938FBFDF91CF911F9108952B
:10059000DE2BF8CFCF93DF9390E0FC01ED58FE4FB8
:1005A00024918C5A9E4FFC0184918823D1F090E0D5
:1005B000880F991FFC01E65DFE4FA591B491FC01E7
:1005C000E85CFE4FC591D49161110EC09FB7F894BD
:1005D0008C91E22FE0958E238C932881E223E8838F
:1005E0009FBFDF91CF9108958FB7F894EC91E22BE4
:1005F000EC938FBFF6CF3FB7F89480916003909152
:100600006103A0916203B091630326B5A89B05C066
:100610002F3F19F00196A11DB11D3FBFBA2FA92F81
:10062000982F8827BC01CD01620F711D811D911D7E
:1006300042E0660F771F881F991F4A95D1F70895EA
:100640008F929F92AF92BF92CF92DF92EF92FF92E2
:100650004B015C010E94FB026B017C010E94FB02CA
:100660006C197D098E099F09683E734081059105CB
:10067000A8F321E0821A9108A108B10888EEC80EFB
:1006800083E0D81EE11CF11C81149104A104B10483
:1006900029F7FF90EF90DF90CF90BF90AF909F90A1
:1006A0008F9008958091DC03811104C0809115041E
:1006B000882339F061E070E080E090E00E94200340
:1006C000F1CF08950895409136035091370320915A
:1006D00034033091350342175307B4F49091E80086
:1006E0009570E1F39091E80092FD19C08093F100BC
:1006F000809136039091370301968F739927892B48
:1007000019F48EEF8093E8008091360390913703BF
:100710000196909337038093360381E0089580E03B
:100720000895EF92FF920F931F93CF93DF93F82ECC
:10073000192FE62E042F81E0860F880F0E94630395
:1007400083E00E946303CF2DD12FEC0EFD2EF11C10
:10075000CE15DF05B9F007FF13C0FE0184910E949A
:100760006303182F80E00E94630381232196811187
:10077000EFCFDF91CF911F910F91FF90EF900895F0
:100780008881EDCF81E0F5CFDF92EF92FF920F935A
:100790001F93CF93DF93D82E8A01EB017B01E40EE8
:1007A000F51ECE15DF0559F0D7FE12C0FE0184916B
:1007B0000E94630321968111F4CF0FEF1FEFC80150
:1007C000DF91CF911F910F91FF90EF90DF900895EF
:1007D0008881EECF0F931F93CF93DF931F92CDB7F6
:1007E000DEB782E0898342E450E06CEA70E080E8A2
:1007F0000E94C4030E941302DC0112960D911C9109
:100800000115110589F0D801ED91FC910280F38169
:10081000E02DBE016F5F7F4FC801099597FD04C0B1
:10082000F80100851185ECCF89810F90DF91CF9180
:100830001F910F910895615030F02091F100FC015B
:1008400020830196F8CF289884E68093700308955A
:100850008F929F92AF92BF92CF92DF92EF92FF92D0
:100860000F931F93CF93DF936C017B018A018091DB
:100870000B01882309F45CC080917103882309F47B
:1008800057C080913A0380FF05C08091E0008260EC
:100890008093E000E801B12C8AEFA82E93E0892E26
:1008A0002AE3922E209711F4BB20D9F10E94020274
:1008B00081110AC0AA94AA20D9F161E070E080E019
:1008C00090E00E942003EECF8C171D0611F00CF073
:1008D0008C2F9FB7F8948092E9002091E80025FDC5
:1008E00002C09FBFDFCF282F30E0C21BD30BF70120
:1008F000815020F041914093F100FACFE20EF31EB7
:10090000BB2021F09092E800B12CEBCF8091E80061
:1009100085FDE7CF9092E800BB24B394209709F3BC
:10092000F3CF5D9884E680933903101611063CF0EE
:1009300081E090E0F6019383828310E000E0C8013B
:10094000DF91CF911F910F91FF90EF90DF90CF90AB
:10095000BF90AF909F908F900895CF93DF931F9299
:10096000CDB7DEB76983DC01ED91FC910280F381A4
:10097000E02D41E050E0BE016F5F7F4F09950F9081
:10098000DF91CF91089583E08093E9008091F20098
:10099000882319F08AE38093E80008950E940202F8
:1009A00090E00895CF93DF931F92CDB7DEB7FC019F
:1009B0008485958597FD08C02FEF3FEF3587248705
:1009C0000F90DF91CF910895CE0101960E94D8013A
:1009D000019719F4898190E0F3CF8FEF9FEFF0CF6B
:1009E0000F931F93CF93DF931F92CDB7DEB78C0188
:1009F000FC018485958597FF0BC0CE0101960E946E
:100A0000D801019771F4898190E0F8019587848776
:100A1000F801848595850F90DF91CF911F910F91FB
:100A200008958FEF9FEFF1CFFC018485958597FDA9
:100A30000BC09FB7F89482E08093E9008091F200A8
:100A40009FBF90E0019608959FB7F89482E080934D
:100A5000E9008091F2009FBF90E00895F89441E092
:100A600040936800ABE6B0E09C91E82FF0E021E015
:100A700030E001C0220F8A95EAF7892F822B8C93F0
:100A8000EE0FFF1FEC5DFC4F718360834BBB9091B9
:100A9000C203822F809589238093C20383B19091F2
:100AA000C2038223892B8093C203789408954F92C6
:100AB0005F926F927F928F929F92AF92BF92CF92EE
:100AC000DF92EF92FF92CF93DF93EC016B817C81F9
:100AD000072E000C880B990B0E94DE159B01AC01C0
:100AE0006D817E818F8198850E94C2146B017C018B
:100AF000C9A2DAA2EBA2FCA229A53AA54BA55CA546
:100B00000E94C3144B015C0189A69AA6ABA6BCA6A1
:100B10004DA45EA46FA478A820E030E0A901C30131
:100B2000B2010E948E1618169CF4A50194015F77FD
:100B3000C301B2010E942F1587FF0AC0A7019601C9
:100B4000C501B4010E94C21469A77AA78BA79CA70C
:100B50002DA13EA14FA158A5C701B6010E94C21404
:100B60004B015C01CDA2DEA2EFA2F8A629A53AA511
:100B70004BA55CA5698D7A8D8B8D9C8D0E949316FB
:100B80002B013C012D893E894F89588DC701B60143
:100B90000E9493169B01AC01C301B2010E94C314D1
:100BA0006B017C012D8D3E8D4F8D58A1C501B40187
:100BB0000E9493169B01AC01C701B6010E94C314A9
:100BC0006DAB7EAB8FAB98AF0E94A615E881F98123
:100BD0000190F081E02DCE01DF91CF91FF90EF9059
:100BE000DF90CF90BF90AF909F908F907F906F904D
:100BF0005F904F900994FC01F894878590897894D0
:100C0000680F791F7287618782E082830895CF928F
:100C1000DF92EF92FF926B017C0120E030E0A901AE
:100C20000E948E1620E030E040E751EC181624F4C4
:100C300020E030E040E751E460E070E0CB010E944A
:100C4000040123EC35EF48E450E4609150047091C6
:100C5000510480915204909153040E94931620E015
:100C600030E044E353E40E943415A70196010E944A
:100C7000931620914C0430914D0440914E045091B4
:100C80004F040E9434150E94A6156B016627772732
:100C90006C197D098AED93E00E94FB05B60183E1A2
:100CA00094E00E94FB05FF90EF90DF90CF900C94B2
:100CB00052038F929F92AF92BF92CF92DF92EF92A8
:100CC000FF920F934B015C0169017A01E894F7F8F8
:100CD00020E030E0A9010E948E16181624F0F7FAE1
:100CE000F094F7F8F09420E030E0A901C701B601D4
:100CF0000E94040120914C0430914D0440914E0417
:100D000050914F04C501B4010E9434150E94A615EC
:100D10006B018AED93E00E94FB05B60183E194E04C
:100D20000E94FB05002359F00F91FF90EF90DF9098
:100D3000CF90BF90AF909F908F900C9452030F91E3
:100D4000FF90EF90DF90CF90BF90AF909F908F90EB
:100D5000089520E077FF04C071956195710921E045
:100D6000FC0183859485681779070CF4CB01909377
:100D7000890080938800222319F0299A219A0895E6
:100D80002998FCCF20E077FF04C071956195710927
:100D900021E0FC0183859485681779070CF4CB0169
:100DA00090938B0080938A00222319F02A9A229A2A
:100DB00008952A98FCCFCF93DF93CAEDD3E01A822F
:100DC00070E060E0CE010E94C2061BAE70E060E001
:100DD00083E194E0DF91CF910C94A906CF93DF9348
:100DE000EC0189899A8950E070E02B893C89AF85B4
:100DF000B8898427952726273727821B930B8A0FCC
:100E00009B1F988B8F877A8B698B5C8B4B8B8A812E
:100E1000823089F42F85388989859A852817390782
:100E200051F4E881F9810190F081E02D70E060E0FB
:100E3000CE0109951A82DF91CF9108956CB1262FCA
:100E400030E0359527953595279583B1422F417030
:100E5000682F70E094E0759567959A95E1F76227A1
:100E600061708AED93E00C94EE064FB141706CB165
:100E700066FB662760F9642783E194E00C94EE0634
:100E80008091C4030E947302892B59F00E94FB02D7
:100E90006093CE037093CF038093D0039093D103DC
:100EA00008950E94FB026093D2037093D303809352
:100EB000D4039093D5038091C30382608093C303CE
:100EC0000895FC0101900020E9F73197AF01481B1C
:100ED000590BBC0182E793E00C9428048F929F92F7
:100EE000AF92BF920F931F93CF93DF93CDB7DEB72F
:100EF000A1970FB6F894DEBF0FBECDBF19A2423046
:100F000008F44AE08E010F5D1F4F842E912CB12C06
:100F1000A12CA50194010E946314E62FB901CA0116
:100F2000EA30F4F4E05DD801EE938D01232B242BFD
:100F3000252B79F790E080E0109719F0CD010E9401
:100F40006107A1960FB6F894DEBF0FBECDBFDF914B
:100F5000CF911F910F91BF90AF909F908F90089568
:100F6000E95CE1CFCF93DF930E946107EC018BE452
:100F700091E00E9461078C0F9D1FDF91CF91089532
:100F80004F925F926F927F928F929F92AF92BF9299
:100F9000CF92DF92EF92FF920F931F93CF936B014B
:100FA0007C01742EAC019B010E940017882399F0EC
:100FB0008EE491E0CF911F910F91FF90EF90DF9021
:100FC000CF90BF90AF909F908F907F906F905F90E9
:100FD0004F900C94610746015701E894B7F82FEF42
:100FE0003FEF4FE75FE7C501B4010E940017811191
:100FF0000DC02FEF3FEF4FE75FE7C501B4010E943F
:101000002F1518161CF482E591E0D4CF2FEF3FEF97
:101010004FE75FE4C701B6010E948E1618161CF454
:1010200086E591E0C7CF2FEF3FEF4FE75FECC701B9
:10103000B6010E942F1587FDF3CF20E030E0A90113
:10104000C701B6010E942F1510E000E087FF0AC01B
:101050006DE282E793E00E94AD048C01F7FAF09410
:10106000F7F8F094C0E060E070E080E09FE37C1669
:1010700041F020E030E040E251E40E943415CF5FBF
:10108000F6CFA70196010E94C3142B013C010E94D8
:10109000AD154B015C014AE00E946E077C01E00E39
:1010A000F11ECC23C1F1C501B4010E94DC159B01E6
:1010B000AC01C301B2010E94C2144B015C016EE29B
:1010C00082E793E00E94AD04E80EF91EC15018F1CA
:1010D00020E030E040E251E4C501B4010E949316E3
:1010E0002B013C010E94AD154B01B12CA12C4AE013
:1010F000C501B4010E946E07E80EF91EC501B401D6
:101100000E94DC159B01AC01C301B2010E94C21414
:101110004B015C01DBCFC701CF911F910F91FF9075
:10112000EF90DF90CF90BF90AF909F908F907F9087
:101130006F905F904F900895CF93DF9342E00E94AD
:10114000C007EC018BE491E00E9461078C0F9D1FAA
:10115000DF91CF9108950E9405171F920F920FB64D
:101160000F9211242F933F938F939F93AF93BF932D
:1011700080915C0390915D03A0915E03B0915F0349
:1011800030915B0323E0230F2D3758F50196A11D05
:10119000B11D20935B0380935C0390935D03A09348
:1011A0005E03B0935F038091600390916103A0910F
:1011B0006203B09163030196A11DB11D809360038A
:1011C00090936103A0936203B0936303BF91AF91C7
:1011D0009F918F913F912F910F900FBE0F901F9075
:1011E000189526E8230F0296A11DB11DD2CF1F929C
:1011F0000F920FB60F9211242F933F934F935F934B
:101200006F937F938F939F93AF93BF93EF93FF93CE
:10121000E0911401F09115010995FF91EF91BF91B3
:10122000AF919F918F917F916F915F914F913F917E
:101230002F910F900FBE0F901F9018951F920F9235
:101240000FB60F9211242F933F934F935F936F9399
:101250007F938F939F93AF93BF93EF93FF93E0910F
:101260001201F09113010995FF91EF91BF91AF9198
:101270009F918F917F916F915F914F913F912F91AE
:101280000F900FBE0F901F9018951F920F920FB6E0
:101290000F9211242F933F934F935F936F937F93FC
:1012A0008F939F93AF93BF93EF93FF93E0911001C0
:1012B000F09111010995FF91EF91BF91AF919F912D
:1012C0008F917F916F915F914F913F912F910F90EF
:1012D0000FBE0F901F9018951F920F920FB60F928E
:1012E00011242F933F934F935F936F937F938F932B
:1012F0009F93AF93BF93EF93FF93E0910E01F09113
:101300000F010995FF91EF91BF91AF919F918F913F
:101310007F916F915F914F913F912F910F900FBEF1
:101320000F901F9018951F920F920FB60F921124D5
:101330002F933F934F935F936F937F938F939F93DD
:10134000AF93BF93EF93FF93E0910C01F0910D01E8
:101350000995FF91EF91BF91AF919F918F917F91EF
:101360006F915F914F913F912F910F900FBE0F9012
:101370001F9018951F920F920FB60F9211248F9302
:101380009F938091E1009091E100937F9093E10021
:1013900083FF0FC01092E90091E09093EB00109250
:1013A000EC0092E39093ED001092710398E090931B
:1013B000F00082FF22C093E09093E9009091F20048
:1013C000992319F09AE39093E800909139039923B7
:1013D00041F090913903915090933903911101C0DC
:1013E0005D9A90917003992341F090917003915010
:1013F00090937003911101C0289A84FF18C08091C6
:10140000E2008E7E81608093E2008091E1008F7E19
:101410008093E10080913A038E7E806180933A034D
:101420009F918F910F900FBE0F901F90189580FF86
:10143000F7CF8091E2008E7E80618093E200809100
:10144000E1008E7E8093E10080913A038E7E816080
:10145000E5CF1F920F920FB60F921124CF92DF9219
:10146000EF92FF920F931F932F933F934F935F93AE
:101470006F937F938F939F93AF93BF93EF93FF935C
:10148000CF93DF93CDB7DEB76C97DEBFCDBF1092A1
:10149000E9008091E80083FF25C068E0CE01459611
:1014A0000E941B0482EF8093E8008D8987FF39C07A
:1014B0009091E80090FFFCCF982F907609F034C10E
:1014C0009E894F89588D2F89F88C911131C08038B1
:1014D00061F580913B038093F1001092F1008EEF53
:1014E0008093E8006C960FB6F894DEBF0FBECDBFB8
:1014F000DF91CF91FF91EF91BF91AF919F918F912C
:101500007F916F915F914F913F912F911F910F911B
:10151000FF90EF90DF90CF900F900FBE0F901F9035
:1015200018959EEF9093E800C7CF1092F100D5CFA9
:10153000913059F48111D3CF4130510581F680911A
:101540003B038D7F80933B03CACF933049F48111D5
:10155000C6CF4130510519F680913B038260F2CF2E
:10156000953041F48091E80080FFFCCF2068209303
:10157000E300B5CF963009F0A9C00B8D1C8D22E099
:101580001092E9001092370310923603F2122EC027
:1015900010923503109234030E94EA031F8299E0EF
:1015A0009983FA8291E09E8390EA98879AEF9987CF
:1015B0002091360330913703275F3F4F3C832B83C5
:1015C0008D831092E9001092370310923603109326
:1015D00035030093340349E050E0BE016F5F7F4F55
:1015E00080E00E94C4030E94EA0379CF1093350380
:1015F000009334030E941302DC0112960D911C919A
:101600000115110509F451C1D801ED91FC91048037
:10161000F581E02DBE016B5E7F4FC80109950097F3
:1016200009F03EC1F80100851185EACFF3E0FF1211
:101630000EC08F89882309F440C0823061F440E8ED
:1016400062E187E191E00E949103811148CF81E23C
:101650008093EB0047CF813029F440E862E184E0D9
:1016600091E0F1CF833099F70E941302DC011296CA
:10167000ED90FC908E010F5F1F4F6801E114F104A3
:1016800079F0D701ED91FC910680F781E02DB8014A
:10169000C7010995080F111DF701E084F184EECF11
:1016A000D8011C92F60101900020E9F73197BF01A3
:1016B0006C197D0940E0C601C6CF6EEE70E0FB01FB
:1016C000449150E080E80E94C40309CF973009F4A8
:1016D000BECF983021F481E08093F10000CF9930A3
:1016E00009F0FDCE837009F0B2CFEDE1F1E081E0C9
:1016F00031E096E32191222371F08093E900309349
:10170000EB00DF0111972C912093EC009093ED00FA
:101710008F5F873079F78EE78093EA001092EA00B6
:101720008F8980937103DBCE8B8D9C8D1092E900A5
:10173000109237031092360390933503809334034D
:10174000898D811192C08E899D89913A49F48132A7
:1017500009F07DCF47E050E064E071E080E0B3CF76
:10176000913209F074CF833269F48F89988DB0E09B
:10177000A0E08093000190930101A0930201B09337
:101780000301ADCE803269F48091E80082FFFCCF86
:1017900067E084E091E00E941B048BEF8093E800F7
:1017A0009ECE823209F09BCE8F8980930B01EEEFA3
:1017B000FFE7859194918B3F9C4D51F1E0E0F8E07B
:1017C0008091040190910501A0910601B09107015B
:1017D000803B9440A105B105F1F480910B0180FD9F
:1017E0001AC0EE3F8AE0F80789F587E797E791830B
:1017F0008083809160008093380388E19BE00FB67E
:10180000F894A895809360000FBE9093600067CE17
:10181000EEEFFAE0D5CF808191818737974709F0C5
:101820005ECEA89580916000886180936000809171
:10183000380380936000EE3F2AE0F20789F0809140
:10184000FE0A9091FF0A9183808349CE8081918125
:101850008737980751F29093FF0A8093FE0AC5CF0D
:101860001092FF0A1092FE0A3ACE0E941302DC0187
:1018700012960D911C910115110509F4E8CED801BD
:10188000ED91FC910190F081E02DBE016B5E7F4FE8
:10189000C8010995811123CEF80100851185EBCF90
:1018A000181619060CF41BCED2CEF1E0FF12BECEF4
:1018B00062EF70E004CF1F920F920FB60F921124C7
:1018C0002F933F934F935F936F937F938F939F9348
:1018D000AF93BF93EF93FF93CF93DF9300D01F920B
:1018E000CDB7DEB783B1898389819091C2038927FF
:1018F0008A8380916B009A8189238B838B8180FFFF
:1019000005C0E0912403F091250309958B8181FFA7
:1019100005C0E0912603F091270309958B8182FF92
:1019200005C0E0912803F091290309958B8183FF7D
:1019300005C0E0912A03F0912B0309958B8184FF68
:1019400005C0E0912C03F0912D0309958B8185FF53
:1019500005C0E0912E03F0912F0309958B8186FF3E
:1019600005C0E0913003F091310309958B8187FF29
:1019700005C0E0913203F09133030995898180938A
:10198000C2030F900F900F90DF91CF91FF91EF91D5
:10199000BF91AF919F918F917F916F915F914F9187
:1019A0003F912F910F900FBE0F901F9018951F928F
:1019B0000F920FB60F9211242F933F934F935F9383
:1019C0006F937F938F939F93AF93BF93EF93FF9307
:1019D0008091E9039091EA032091E7033091E803B5
:1019E000AC01421B530B5093DE034093DD039093F5
:1019F000E8038093E70380912204909123042091CF
:101A0000200430912104AC01421B530B5093170466
:101A10004093160490932104809320048091DC036A
:101A2000813021F08091DC03823021F48AED93E053
:101A30000E94570580911504813021F08091150492
:101A4000823021F483E194E00E945705FF91EF91E9
:101A5000BF91AF919F918F917F916F915F914F91C6
:101A60003F912F910F900FBE0F901F901895CF931D
:101A7000DF93E2E7F3E01382128288EE93E0A0E0C6
:101A8000B0E084839583A683B78381E391E091835B
:101A900080838FEF9FEF9587848783B18093C20304
:101AA000EAEDF3E012821482138215821682178205
:101AB0001086128611862CE231E034872387168641
:101AC0001586108A1786128A118A148A138A40E0B2
:101AD00050E060EA70E4458B568B678B708F80E036
:101AE00090E0A0E0BFE3818F928FA38FB48F158E1B
:101AF000168E178E10A211A212A213A214A215A262
:101B000016A217A210A611A612A613A614A615A611
:101B100016A617A610AA11AA12AA13AA14AA15AAE1
:101B200016AA17AA10AEC9E4D1E0D183C08313AEC0
:101B300015AE14AE109218041092190410921A04E3
:101B400010921B0410921D0410921C0430931F0469
:101B500020931E041092210410922004109223045A
:101B6000109222041092250410922404109227044B
:101B700010922604409328045093290460932A0469
:101B800070932B0480932C0490932D04A0932E0427
:101B9000B0932F041092300410923104109232044A
:101BA00010923304109234041092350410923604CB
:101BB00010923704109238041092390410923A04AB
:101BC00010923B0410923C0410923D0410923E048B
:101BD00010923F041092400410924104109242046B
:101BE000109243041092440410924504109246044B
:101BF00010924704109248041092490410924A042B
:101C000010924B0483E491E092AF81AF8EED95E3A7
:101C1000AAE7BCE380934C0490934D04A0934E0438
:101C2000B0934F0486E696E6AEEEB0E4809350049F
:101C300090935104A0935204B093530480E190E038
:101C40009093550480935404E3ECF3E010821382E4
:101C50001482158216828AE090E0A0E0B0E08783CB
:101C60009087A187B28713861486158616861786F5
:101C7000108A118A128A80E090E0A6ECB2E4838B8D
:101C8000948BA58BB68B8BE0818384E08283DF917C
:101C9000CF910895789484B5826084BD84B58160C5
:101CA00084BD85B5826085BD85B5816085BD809127
:101CB0006E00816080936E0010928100809181009F
:101CC0008260809381008091810081608093810097
:101CD000809180008160809380008091910082607B
:101CE0008093910080919100816080939100809118
:101CF00090008160809390008091C1008460809307
:101D0000C1008091C10082608093C1008091C100B8
:101D100081608093C1008091C30081608093C30083
:101D20008091C00082608093C0008091C200816079
:101D30008093C20080917A00846080937A008091C1
:101D40007A00826080937A0080917A00816080932B
:101D50007A0080917A00806880937A0010927103F3
:101D600010923B0310923A038091D70081608093D8
:101D7000D70080EA8093D80089B5806189BD89B594
:101D8000826089BD09B400FEFDCF61E070E080E0B3
:101D900090E00E9420038091D8008F7C8061809326
:101DA000D8008091E000807F8093E0008091E10086
:101DB0008E7E8093E1008DE08093E200559A209A18
:101DC0008FEF9FEF90937F0380937E038BE591E0ED
:101DD0000E94B2072E98269A2D98259A2A98229A20
:101DE0002998219A2F98279AF8948AEA809380005C
:101DF00089E18093810084EA91E090938700809349
:101E00008600109289001092880010928B00109228
:101E10008A0010928D0010928C0078948AE591E0EF
:101E20000E94B20789E691E00E94B20724982C9A9A
:101E30006A98729A6E98769A8098889A6EE177E09E
:101E400084E00E942E0585E397E09093150180932E
:101E5000140180916A008F7C806180936A00EE9A01
:101E60006CB1262F30E0359527953595279583B1B0
:101E7000422F4170682F70E034E0759567953A9570
:101E8000E1F7622761708AED93E00E94EE06F89414
:101E90008091E9039091EA031092EA031092E9031A
:101EA0001092E8031092E70378946CB1262F30E08B
:101EB000359527953595279583B1422F4170682F29
:101EC00070E054E0759567955A95E1F76227617067
:101ED00083E194E00E94EE06F894809122049091B0
:101EE00023041092230410922204109221041092D1
:101EF0002004789488E691E00E94B207F89410924A
:101F0000C0008BE08093C1001092C2001092C30009
:101F100089EF8093D10084E080937200789440E050
:101F200050E060EA70E44093EF035093F003609355
:101F3000F1037093F20310920304109204041092C0
:101F400005041092060480E090E0A0E0BFE38093D7
:101F5000F3039093F403A093F503B093F603409337
:101F600028045093290460932A0470932B04109240
:101F70003C0410923D0410923E0410923F04809362
:101F80002C0490932D04A0932E04B0932F0460E0B2
:101F90008091C4030E94CA028091C403843018F067
:101FA000873009F0ADC088E791E00E94B2078091C8
:101FB000C403882309F496C0813009F062C080E42C
:101FC00097E09093130180931201809169008F73C1
:101FD000806480936900EB9A61E08091C5030E9460
:101FE000CA0260E085E10E94CA0260E086E10E94C8
:101FF000CA0281E090E0909317018093160101E0FE
:1020000020E030E040E85FE3CA01B9010E945906D0
:102010008FEA91E00E94B20786EB91E00E94B2073E
:1020200061E08DE00E949C021092DC0370E060E0B1
:102030008AED93E00E94C2061092150470E060E001
:1020400083E194E00E94A906C2E0D0E083E0282E5C
:10205000312C80911601909117018330910509F47C
:102060005EC10CF060C08130910509F466C0029732
:1020700009F492C080E090E0892B59F30E9400009F
:10208000E8CF823071F480E497E090930F01809361
:102090000E0180916900837F846080936900E99AD2
:1020A0009BCF833071F480E497E090930D0180938F
:1020B0000C01809169008C7F816080936900E89AAF
:1020C0008BCF873009F088CF80E497E0909315019B
:1020D0008093140180916A008F7C806180936A00F4
:1020E000EE9A7ACF80E497E09093110180931001EB
:1020F000809169008F7C806180936900EA9A6CCF3F
:1021000082E991E00E94B207E091C403E8508FEFAA
:10211000EA3020F4F0E0ED5DFE4F808160E477E08E
:102120000E942E0559CF8430910509F433C10597DB
:1021300009F0A0CF0E94DB069DCF8FEB91E00E94BB
:10214000B20710925A03109259031092580310923A
:102150005403109255031092560310925703109295
:102160005003109251031092520310925303109295
:102170004C0310924D0310924E0310924F03109295
:1021800048031092490310924A0310924B03D093D4
:102190001701C09316016ECF8BE491E00E94610796
:1021A0008BEC91E00E94B2078091C30381FF2EC0A7
:1021B000F8948091D2039091D303A091D403B0916D
:1021C000D5034091CE035091CF036091D00370911D
:1021D000D103841B950B2091C3032D7F2093C30350
:1021E0007894009799F0BC0190E080E00E94DC15A3
:1021F00020E030E048E652E40E9434156093D603B4
:102200007093D7038093D8039093D9038091C4032C
:102210000E947302892B99F02FB7F89480915C0388
:1022200090915D03A0915E03B0915F032FBF8093F7
:10223000C6039093C703A093C803B093C9032FB7F5
:10224000F89480915C0390915D03A0915E03B0913E
:102250005F032FBF4091C6035091C7036091C8032D
:102260007091C903841B950BA60BB70B4091CA0351
:102270005091CB036091CC037091CD0384179507E7
:10228000A607B707A8F1F8941092CE031092CF03D7
:102290001092D0031092D1031092D2031092D30364
:1022A0001092D4031092D5031092C30378942FB7E1
:1022B000F89480915C0390915D03A0915E03B091CE
:1022C0005F032FBF8093C6039093C703A093C803F7
:1022D000B093C90361E08091C5030E949C0283E72B
:1022E00090E00197F1F760E08091C5030E949C02A5
:1022F0008091C3038091D6039091D703A091D80316
:10230000B091D9038093440390934503A09346036F
:10231000B09347033092170120921601ABCE87EDA0
:1023200091E00E94B2072DE233E949EC5EE360914F
:1023300044037091450380914603909147030E94A6
:1023400093166B017C01C0924003D0924103E0924E
:102350004203F092430383EE91E00E946107C701BC
:10236000B6010E949C088091400390914103A09186
:102370004203B09143038093540390935503A09379
:102380005603B093570384E090E090931701809335
:10239000160170CE86EF91E00E94B2078091DC03B7
:1023A0008111F8C1809115048111F4C180E092E09F
:1023B0000E94B20780915A03816080935A03409033
:1023C00050035090510360905203709053038090DB
:1023D000540390905503A0905603B0905703A50165
:1023E000940160E070E080EC90E40E94C2146B0104
:1023F0007C01C0925003D0925103E0925203F092BC
:102400005303A30192010E94C21460934C03709382
:102410004D0380934E0390934F03C701B6019F77FE
:1024200020E030E040E05FE30E948E1618160CF0CA
:10243000D5C088E192E00E94B20760913C037091A0
:102440003D0380913E0390913F039F7720E030E071
:1024500040E251E40E948E1618160CF008C110924A
:1024600048031092490310924A0310924B0387E3EA
:1024700092E00E94610742E0C501B4010E94C007DA
:1024800083E592E00E9461076091500370915103CF
:10249000809152039091530342E00E94C00781E66D
:1024A00092E00E94610760914C0370914D0380910E
:1024B0004E0390914F0342E00E94C0078CE692E0E9
:1024C0000E946107609148037091490380914A031B
:1024D00090914B030E949C0826E636E646E950E4BC
:1024E0006091500370915103809152039091530376
:1024F0000E9493166B017C012AE037ED43E25CE316
:10250000609148037091490380914A0390914B0375
:102510000E9493169B01AC01C701B6010E94C3142F
:102520006B017C0123E333E343E150E460914C030E
:1025300070914D0380914E0390914F030E9493162A
:102540009B01AC01C701B6010E94C3146B017C0161
:10255000C0923C03D0923D03E0923E03F0923F03D1
:1025600084E792E00E946107C701B6010E949C08BF
:10257000C0903C03D0903D03E0903E03F0903F03B9
:10258000C701B6019F772DEC3CEC4CE45EE30E9462
:102590002F1587FD11C060915003709151038091F8
:1025A0005203909153039F772DEC3CEC4CEC5DE390
:1025B0000E942F1587FF70C010923C0310923D03BC
:1025C00010923E0310923F03109250031092510359
:1025D00010925203109253030E94DB0680915A031B
:1025E0008E7F846080935A0380915A03182F1B7F3B
:1025F00082FF6AC085E992E00E94B207C0904C0455
:10260000D0904D04E0904E04F0904F0420E030E074
:1026100048EC51E460E070E080E291E40E94040143
:10262000A701960166E676E682E492E40E943415FC
:102630000E94A6158AED93E00E94FB05A701960172
:1026400063E373E38BEB92E40E9434150E94A615BA
:1026500083E194E00E94FB050E94520360E070E079
:1026600084E393E40E94070610935A03BDCFA701A9
:102670009601609148037091490380914A039091BB
:102680004B030E94C31460934803709349038093E3
:102690004A0390934B03EBCE20E030E0A901C70141
:1026A000B6010E942F1500E0A701960187FF07C021
:1026B00060E070E080E89FE30E9459068FCF60E001
:1026C00070E080E89FEBF8CF126010935A030E94ED
:1026D000211420915A0321FF2CC068E671E00E946A
:1026E0009414BC01990F880B990B0E94DE156B01A5
:1026F0007C0186EB92E00E94B20783ED92E00E949B
:102700006107C701B6010E949C08C701B6010E947B
:10271000070601E020E030E040EE50E460E070E0C9
:1027200080E291E40E94590680915A038D7F809344
:102730005A0380915A038D7F80935A03C0905803A7
:10274000D09059039FEFC91AD90AD0925903C09269
:10275000580384E193E00E9461070D2C000CEE0801
:10276000FF084AE0C701B601F7FE0DC06DE282E73F
:1027700093E00E94AD0466277727CB016C197D0991
:102780008E099F094AE00E946E078BE491E00E9447
:102790006107FDCC65E070E080E090E00E942003DE
:1027A0008BEF92E00E94B207C9CF8F929F92AF92B7
:1027B000BF92CF92DF92EF92FF92CF93DF93EC0123
:1027C000688179818A819B816115710581059105F7
:1027D00021F464E279ED8BE597E02DE133EF41E000
:1027E00050E00E94311449015A019B01AC01A7EA53
:1027F000B1E40E9450146B017C01ACEEB4EFA50172
:1028000094010E945E14DC01CB018C0D9D1DAE1D58
:10281000BF1DB7FF03C00197A109B0488883998302
:10282000AA83BB839F77DF91CF91FF90EF90DF90DA
:10283000CF90BF90AF909F908F9008950E94D51336
:10284000089588E191E00E94D5130895B0E0A0E0DA
:102850008093180190931901A0931A01B0931B0162
:102860000895052E97FB1EF400940E94481457FD0E
:1028700007D00E94631407FC03D04EF40C94481454
:1028800050954095309521953F4F4F4F5F4F08959C
:1028900090958095709561957F4F8F4F9F4F0895CC
:1028A0000E948514A59F900DB49F900DA49F800D4C
:1028B000911D11240895B7FF0C9450140E945014D8
:1028C000821B930B0895A1E21A2EAA1BBB1BFD01CC
:1028D0000DC0AA1FBB1FEE1FFF1FA217B307E407FF
:1028E000F50720F0A21BB30BE40BF50B661F771F57
:1028F000881F991F1A9469F7609570958095909537
:102900009B01AC01BD01CF010895A29FB001B39F0F
:10291000C001A39F700D811D1124911DB29F700DE8
:10292000811D1124911D089597FB072E16F4009424
:1029300007D077FD09D00E94AE1407FC05D03EF405
:10294000909581959F4F0895709561957F4F08955B
:10295000EE0FFF1F0590F491E02D0994AA1BBB1BFD
:1029600051E107C0AA1FBB1FA617B70710F0A61B8F
:10297000B70B881F991F5A95A9F780959095BC01B0
:10298000CD0108955058BB27AA270E94DA140C9451
:1029900054160E94461638F00E944D1620F039F465
:1029A0009F3F19F426F40C9443160EF4E095E7FBD0
:1029B0000C943D16E92F0E94651658F3BA1762076A
:1029C00073078407950720F079F4A6F50C94871611
:1029D0000EF4E0950B2EBA2FA02D0B01B90190013A
:1029E0000C01CA01A0011124FF27591B99F0593F7E
:1029F00050F4503E68F11A16F040A22F232F342FC6
:102A00004427585FF3CF469537952795A795F04013
:102A10005395C9F77EF41F16BA0B620B730B840B28
:102A2000BAF09150A1F0FF0FBB1F661F771F881FE0
:102A3000C2F70EC0BA0F621F731F841F48F4879538
:102A400077956795B795F7959E3F08F0B0CF93952A
:102A5000880F08F09927EE0F9795879508950E94A3
:102A6000191608F481E008950E9448150C94541634
:102A70000E944D1658F00E94461640F029F45F3F20
:102A800029F00C943D1651110C9488160C944316A1
:102A90000E94651668F39923B1F3552391F3951BB2
:102AA000550BBB27AA2762177307840738F09F5F6F
:102AB0005F4F220F331F441FAA1FA9F335D00E2EDC
:102AC0003AF0E0E832D091505040E695001CCAF749
:102AD0002BD0FE2F29D0660F771F881FBB1F26170C
:102AE00037074807AB07B0E809F0BB0B802DBF01E3
:102AF000FF2793585F4F3AF09E3F510578F00C94B2
:102B00003D160C9488165F3FE4F3983ED4F3869507
:102B100077956795B795F7959F5FC9F7880F911DD2
:102B20009695879597F90895E1E0660F771F881FBE
:102B3000BB1F621773078407BA0720F0621B730B71
:102B4000840BBA0BEE1F88F7E09508950E94AD152F
:102B50006894B1110C94881608950E946D1688F03F
:102B60009F5798F0B92F9927B751B0F0E1F0660F51
:102B7000771F881F991F1AF0BA95C9F714C0B13092
:102B800091F00E948716B1E008950C948716672F84
:102B9000782F8827B85F39F0B93FCCF386957795C1
:102BA0006795B395D9F73EF49095809570956195AA
:102BB0007F4F8F4F9F4F0895E89409C097FB3EF4D5
:102BC00090958095709561957F4F8F4F9F4F99237A
:102BD000A9F0F92F96E9BB279395F69587957795F8
:102BE0006795B795F111F8CFFAF4BB0F11F460FFB8
:102BF0001BC06F5F7F4F8F4F9F4F16C0882311F010
:102C000096E911C0772321F09EE8872F762F05C023
:102C1000662371F096E8862F70E060E02AF09A95BE
:102C2000660F771F881FDAF7880F9695879597F9B3
:102C30000895990F0008550FAA0BE0E8FEEF16164D
:102C40001706E807F907C0F012161306E407F507A0
:102C500098F0621B730B840B950B39F40A2661F014
:102C6000232B242B252B21F408950A2609F4A140B7
:102C7000A6958FEF811D811D089597F99F6780E8C4
:102C800070E060E008959FEF80EC089500240A94BE
:102C90001616170618060906089500240A94121637
:102CA0001306140605060895092E0394000C11F46A
:102CB000882352F0BB0F40F4BF2B11F460FF04C017
:102CC0006F5F7F4F8F4F9F4F089557FD9058440F70
:102CD000551F59F05F3F71F04795880F97FB991F7B
:102CE00061F09F3F79F08795089512161306140638
:102CF000551FF2CF4695F1DF08C0161617061806C5
:102D0000991FF1CF86957105610508940895E8949F
:102D1000BB2766277727CB0197F908950E941916DC
:102D200008F48FEF08950E94A6160C9454160E9482
:102D3000461638F00E944D1620F0952311F00C94A1
:102D40003D160C94431611240C9488160E946516A7
:102D500070F3959FC1F3950F50E0551F629FF001EE
:102D6000729FBB27F00DB11D639FAA27F00DB11D07
:102D7000AA1F649F6627B00DA11D661F829F222790
:102D8000B00DA11D621F739FB00DA11D621F839F17
:102D9000A00D611D221F749F3327A00D611D231FED
:102DA000849F600D211D822F762F6A2F11249F573B
:102DB00050409AF0F1F088234AF0EE0FFF1FBB1F3E
:102DC000661F771F881F91505040A9F79E3F5105FD
:102DD00080F00C943D160C9488165F3FE4F3983E07
:102DE000D4F3869577956795B795F795E7959F5FA7
:102DF000C1F7FE2B880F911D9695879597F9089539
:102E00000E941916880B990B089581E090E0F894C0
:082E10000C940A17F894FFCF9F
:102E1800FFFFFFFF00E10000000000006203620303
:102E280062036203620301000100000000C18081A7
:102E380000000004050607FFFF0301020000000070
:102E480000AD042804CE04C3041405D204F0040021
:102E5800000000A90600000000C2060D0A006E610D
:102E68006E00696E66006F7666002F696E69744D34
:102E78006F746F72732829002F696E6974456E63C9
:102E88006F64657273282900417474616368696EA0
:102E9800672072616E676566696E64657220495362
:102EA8005200417474616368696E672072616E676D
:102EB8006566696E6465722050435F4953520069C4
:102EC800646C652829007365744C454428290053AF
:102ED800544154455F424547494E00535441544577
:102EE8005F53454E53450053544154455F54484938
:102EF8004E4B0072616E676566696E646572206428
:102F08006973743D200053544154455F4143540054
:102F1800636865636B4D6F74696F6E2049532063F6
:102F28006F6D706C65746500617070726F61636855
:102F3800436F6E74726F6C6C65723A2020616374B3
:102F480069766174656400617070726F616368436B
:102F58006F6E74726F6C6C65723A20206D65617368
:102F68003D2000202065545F64656C7461543D20E9
:102F78000020206464745F65543D2000202069456A
:102F8800743D2000617070726F616368436F6E7486
:102F9800726F6C6C65723A20206163747561746934
:102FA8006F6E3D200077616C6C466F6C6C6F774379
:102FB8006F6E74726F6C6C65723A2020616374690D
:102FC80076617465640077616E646572436F6E74D0
:102FD800726F6C6C65723A202061637469766174F3
:102FE80065640077616E646572436F6E74726F6CAE
:102FF8006C65723A202073656C656374656420742F
:1030080075726E416E676C653D2000636865636B21
:103018004D6F74696F6E204E4F5420636F6D706CE6
:103028006574650074657374497465726174696F59
:043038006E3D2000C9
:00000001FF
