:100000000C94DA000C94420A0C941B0A0C94F40928
:100010000C94CD090C9402010C9402010C94A609D5
:100020000C9402010C940A0D0C94690A0C94D80AE1
:100030000C9402010C9402010C9402010C94020134
:100040000C9402010C9402010C9402010C94020124
:100050000C9402010C9402010C9402010C945C09B2
:100060000C9402010C9402010C9402010C94020104
:100070000C9402010C9402010C9402010C940201F4
:100080000C9402010C9402010C9402010C940201E4
:100090000C9402010C9402010C9402010C940201D4
:1000A0000C9402010C94860D0C940201080B0002C2
:1000B0000202000009040000010202000005240001
:1000C0001001052401010104240206052406000193
:1000D0000705810310004009040100020A00000026
:1000E00007050202400000070583024000000403E8
:1000F000090412010002EF020140FB1F002300016E
:1001000001020301506F6C6F6C7520436F72706F4A
:10011000726174696F6E00506F6C6F6C7520412D49
:100120005374617220333255340000000000240003
:1001300027002A002D0030000000000025002800C4
:100140002B002E00310000000000230026002900B3
:100150002C002F000404040404030405020202021C
:100160000403020202020606060606060404020250
:100170000204040408020110408040102040804026
:1001800080080204018040201002011080102040ED
:1001900040200000000200090F0000030401000CD1
:1001A000000000000000000000000000000000004F
:1001B0000000E60D11241FBECFEFDAE0DEBFCDBF99
:1001C00013E0A0E0B1E0E0E5FFE202C005900D928F
:1001D000A637B107D9F724E0A6E7B3E001C01D9226
:1001E000A83AB207E1F710E0CAEDD0E004C02197C9
:1001F000FE010E944415C93DD107C9F70E94F90EBE
:100200000C94A6170C9400004F925F926F927F920D
:100210008F929F92AF92BF92CF92DF92EF92FF9216
:10022000CF93DF93CDB7DEB728970FB6F894DEBF34
:100230000FBECDBF4B015C012D833E834F8358879A
:100240006091A6047091A70490E080E00E94781667
:1002500020E030E04AE754E40E94D0156B017C01B5
:1002600040909E0450909F046090A0047090A10460
:10027000A50194010E942F17A30192010E94D0159D
:100280000E94421669837A838B839C8323EC35EF2B
:1002900048E450E46091A2047091A3048091A40406
:1002A0009091A5040E942F1720E030E044E353E42E
:1002B0000E94D0154B015C012D813E814F815885F4
:1002C000C701B6010E942F179B01AC01C501B40103
:1002D0000E942F17A30192010E94D0150E9442167E
:1002E0006B0169817A816C197D09072E000C880BDE
:1002F000990B0E947A1660933104709332048093B4
:1003000033049093340480912E04813081F0109254
:10031000550410925604109257041092580480917C
:100320003B0490913C0490933A048093390481E01B
:1003300080932E0489819A81C80ED91EB601DD0CE6
:10034000880B990B0E947A1660936A0470936B0471
:1003500080936C0490936D0480916704813081F0E8
:1003600010928E0410928F041092900410929104B7
:100370008091740490917504909373048093720437
:1003800081E08093670428960FB6F894DEBF0FBE15
:10039000CDBFDF91CF91FF90EF90DF90CF90BF90D6
:1003A000AF909F908F907F906F905F904F90089547
:1003B000FC018091BF03882311F13FB7F89482E0DC
:1003C0008093E9002091F200822F90E01816190620
:1003D00014F481E090E0882339F0289844E64093B3
:1003E000BE034091F1004083222339F02091F200B6
:1003F000211103C02BE62093E8003FBF08958FEF43
:100400009FEF08952FB7F89483E08093E9009091CF
:10041000E800892F807295FF04C09091F20080E47B
:10042000891B2FBF08958091B60381110DC082E012
:100430008093B20384E08093B3031092B5031092CB
:10044000B40381E08093B60382EB93E0089581507A
:100450008F3008F047C0E82FF0E0EF5CFD4F0C94C0
:1004600044154E025202400246024A0272027202D1
:10047000720255025B025F026302690272026D0240
:10048000809180008F778093800008958091800014
:100490008F7DF9CF80918000877FF5CF84B58F77EE
:1004A00084BD089584B58F7DFBCF809190008F77B8
:1004B000809390000895809190008F7DF9CF809176
:1004C0009000877FF5CF8091C0008F778093C00028
:1004D00008958091C0008F7DF9CF8091C200877F01
:1004E0008093C2000895CF93DF93282F30E0F90165
:1004F000EE56FE4F8491F901ED58FE4FD491F9016B
:10050000EC5AFE4FC491CC23A1F081110E94270226
:10051000EC2FF0E0EE0FFF1FEA5BFE4FA591B491C8
:10052000EC91ED2381E090E009F480E0DF91CF9140
:10053000089580E090E0FACF1F93CF93DF93282FA8
:1005400030E0F901EE56FE4F8491F901ED58FE4F6F
:10055000D491F901EC5AFE4FC491CC23A9F0162F87
:1005600081110E942702EC2FF0E0EE0FFF1FE85CE4
:10057000FE4FA591B4918FB7F894EC91111108C07A
:10058000D095DE23DC938FBFDF91CF911F9108952B
:10059000DE2BF8CF8091150481FF2EC0F894809156
:1005A000240490912504A0912604B0912704409141
:1005B0002004509121046091220470912304841B33
:1005C000950B209115042D7F2093150478940097A6
:1005D00099F0BC0190E080E00E94781620E030E0C5
:1005E00048E652E40E94D0156093280470932904D1
:1005F00080932A0490932B04809116040E94730226
:10060000892B99F02FB7F8948091C0039091C10382
:10061000A091C203B091C3032FBF8093180490939D
:100620001904A0931A04B0931B042FB7F894809177
:10063000C0039091C103A091C203B091C3032FBF27
:10064000409118045091190460911A0470911B0490
:10065000841B950BA60BB70B40911C0450911D04F5
:1006600060911E0470911F0484179507A607B707B1
:10067000A8F1F89410922004109221041092220400
:100680001092230410922404109225041092260440
:10069000109227041092150478942FB7F894809143
:1006A000C0039091C103A091C203B091C3032FBFB7
:1006B0008093180490931904A0931A04B0931B0418
:1006C00061E0809117040E949C0283E790E001970B
:1006D000F1F760E0809117040E949C02809115045C
:1006E000609128047091290480912A0490912B0430
:1006F0000895CF93DF9390E0FC01ED58FE4F2491D5
:100700008C5A9E4FFC0184918823D1F090E0880F91
:10071000991FFC01E65DFE4FA591B491FC01E85CD8
:10072000FE4FC591D49161110EC09FB7F8948C9182
:10073000E22FE0958E238C932881E223E8839FBFEC
:10074000DF91CF9108958FB7F894EC91E22BEC9361
:100750008FBFF6CF3FB7F8948091AE039091AF036F
:10076000A091B003B091B10326B5A89B05C02F3F5F
:1007700019F00196A11DB11D3FBFBA2FA92F982FC7
:100780008827BC01CD01620F711D811D911D42E0C2
:10079000660F771F881F991F4A95D1F708958F928A
:1007A0009F92AF92BF92CF92DF92EF92FF924B0156
:1007B0005C010E94AA036B017C010E94AA036C19D0
:1007C0007D098E099F09683E734081059105A8F354
:1007D00021E0821A9108A108B10888EEC80E83E0D2
:1007E000D81EE11CF11C81149104A104B10429F765
:1007F000FF90EF90DF90CF90BF90AF909F908F9041
:10080000089580912E04811104C08091670488238B
:1008100039F061E070E080E090E00E94CF03F1CF1A
:10082000089508954091880350918903209186038B
:100830003091870342175307B4F49091E800957004
:10084000E1F39091E80092FD19C08093F10080914E
:1008500088039091890301968F739927892B19F446
:100860008EEF8093E8008091880390918903019630
:10087000909389038093880381E0089580E0089530
:10088000EF92FF920F931F93CF93DF93F82E192FC0
:10089000E62E042F81E0860F880F0E94120483E069
:1008A0000E941204CF2DD12FEC0EFD2EF11CCE157F
:1008B000DF05B9F007FF13C0FE0184910E94120406
:1008C000182F80E00E941204812321968111EFCF1E
:1008D000DF91CF911F910F91FF90EF900895888144
:1008E000EDCF81E0F5CFDF92EF92FF920F931F9350
:1008F000CF93DF93D82E8A01EB017B01E40EF51E26
:10090000CE15DF0559F0D7FE12C0FE0184910E947A
:10091000120421968111F4CF0FEF1FEFC801DF9170
:10092000CF911F910F91FF90EF90DF9008958881F4
:10093000EECF0F931F93CF93DF931F92CDB7DEB708
:1009400082E0898342E450E06CEA70E080E80E9433
:1009500073040E941302DC0112960D911C91011583
:10096000110589F0D801ED91FC910280F381E02D11
:10097000BE016F5F7F4FC801099597FD04C0F80164
:1009800000851185ECCF89810F90DF91CF911F9168
:100990000F910895615030F02091F100FC01208307
:1009A0000196F8CF289884E68093BE0308958F922D
:1009B0009F92AF92BF92CF92DF92EF92FF920F93EE
:1009C0001F93CF93DF936C017B018A0180910B0110
:1009D000882309F45CC08091BF03882309F457C0C1
:1009E00080918C0380FF05C08091E000826080933D
:1009F000E000E801B12C8AEFA82E93E0892E2AE3CB
:100A0000922E209711F4BB20D9F10E94020281118D
:100A10000AC0AA94AA20D9F161E070E080E090E0D9
:100A20000E94CF03EECF8C171D0611F00CF08C2F17
:100A30009FB7F8948092E9002091E80025FD02C05C
:100A40009FBFDFCF282F30E0C21BD30BF7018150AF
:100A500020F041914093F100FACFE20EF31EBB204B
:100A600021F09092E800B12CEBCF8091E80085FD59
:100A7000E7CF9092E800BB24B394209709F3F3CF1B
:100A80005D9884E680938B03101611063CF081E09C
:100A900090E0F6019383828310E000E0C801DF91CB
:100AA000CF911F910F91FF90EF90DF90CF90BF906B
:100AB000AF909F908F900895CF93DF931F92CDB703
:100AC000DEB76983DC01ED91FC910280F381E02DBA
:100AD00041E050E0BE016F5F7F4F09950F90DF91BD
:100AE000CF91089583E08093E9008091F2008823FC
:100AF00019F08AE38093E80008950E94020290E0D2
:100B00000895CF93DF931F92CDB7DEB7FC018485A4
:100B1000958597FD08C02FEF3FEF358724870F900D
:100B2000DF91CF910895CE0101960E94D8010197DF
:100B300019F4898190E0F3CF8FEF9FEFF0CF0F93FF
:100B40001F93CF93DF931F92CDB7DEB78C01FC01CB
:100B50008485958597FF0BC0CE0101960E94D80130
:100B6000019771F4898190E0F80195878487F801F5
:100B7000848595850F90DF91CF911F910F910895F6
:100B80008FEF9FEFF1CFFC018485958597FD0BC01A
:100B90009FB7F89482E08093E9008091F2009FBFB4
:100BA00090E0019608959FB7F89482E08093E90061
:100BB0008091F2009FBF90E00895F89441E0409347
:100BC0006800ABE6B0E09C91E82FF0E021E030E077
:100BD00001C0220F8A95EAF7892F822B8C93EE0FA2
:100BE000FF1FEA58FC4F718360834BBB9091140444
:100BF000822F809589238093140483B190911404EB
:100C00008223892B80931404789408954F925F92E5
:100C10006F927F928F929F92AF92BF92CF92DF920C
:100C2000EF92FF92CF93DF93EC016B817C81072ED3
:100C3000000C880B990B0E947A169B01AC016D8108
:100C40007E818F8198850E945E156B017C01C9A20F
:100C5000DAA2EBA2FCA229A53AA54BA55CA50E94AD
:100C60005F154B015C0189A69AA6ABA6BCA64DA454
:100C70005EA46FA478A820E030E0A901C301B2010E
:100C80000E942A1718169CF4A50194015F77C301EE
:100C9000B2010E94CB1587FF0AC0A7019601C501CA
:100CA000B4010E945E1569A77AA78BA79CA72DA106
:100CB0003EA14FA158A5C701B6010E945E154B0188
:100CC0005C01CDA2DEA2EFA2F8A629A53AA54BA50C
:100CD0005CA5698D7A8D8B8D9C8D0E942F172B01C1
:100CE0003C012D893E894F89588DC701B6010E946C
:100CF0002F179B01AC01C301B2010E945F156B016C
:100D00007C012D8D3E8D4F8D58A1C501B4010E94EF
:100D10002F179B01AC01C701B6010E945F156DAB97
:100D20007EAB8FAB98AF0E944216E881F9810190AB
:100D3000F081E02DCE01DF91CF91FF90EF90DF9019
:100D4000CF90BF90AF909F908F907F906F905F906B
:100D50004F900994FC01F894878590897894680FE6
:100D6000791F7287618782E082830895CF92DF9234
:100D7000EF92FF926B017C0120E030E0A9010E941C
:100D80002A1720E030E040E751EC181624F420E068
:100D900030E040E751E460E070E0CB010E940401E4
:100DA00023EC35EF48E450E46091A2047091A30471
:100DB0008091A4049091A5040E942F1720E030E0B8
:100DC00044E353E40E94D015A70196010E942F1717
:100DD00020919E0430919F044091A0045091A10461
:100DE0000E94D0150E9442166B01662777276C1966
:100DF0007D098CE294E00E94AA06B60185E694E0A3
:100E00000E94AA06FF90EF90DF90CF900C9401040F
:100E10008F929F92AF92BF92CF92DF92EF92FF920A
:100E20000F934B015C0169017A01E894F7F820E027
:100E300030E0A9010E942A17181624F0F7FAF0945E
:100E4000F7F8F09420E030E0A901C701B6010E9454
:100E5000040120919E0430919F044091A004509180
:100E6000A104C501B4010E94D0150E9442166B0175
:100E70008CE294E00E94AA06B60185E694E00E9406
:100E8000AA06002359F00F91FF90EF90DF90CF90CA
:100E9000BF90AF909F908F900C9401040F91FF90A2
:100EA000EF90DF90CF90BF90AF909F908F9008957C
:100EB00020E077FF04C071956195710921E0FC0184
:100EC00083859485681779070CF4CB01909389008A
:100ED00080938800222319F0299A219A089529984D
:100EE000FCCF20E077FF04C071956195710921E086
:100EF000FC0183859485681779070CF4CB019093E6
:100F00008B0080938A00222319F02A9A229A08954E
:100F10002A98FCCFCF93DF93CCE2D4E01A8270E022
:100F200060E0CE010E9471071BAE70E060E085E6D4
:100F300094E0DF91CF910C945807CF93DF93EC01AD
:100F400089899A8950E070E02B893C89AF85B889FE
:100F50008427952726273727821B930B8A0F9B1FF1
:100F6000988B8F877A8B698B5C8B4B8B8A818230D5
:100F700089F42F85388989859A852817390751F48E
:100F8000E881F9810190F081E02D70E060E0CE0110
:100F900009951A82DF91CF9108956CB1262F30E028
:100FA000359527953595279583B1422F4170682F48
:100FB00070E094E0759567959A95E1F76227617006
:100FC0008CE294E00C949D074FB141706CB166FBCC
:100FD000662760F9642785E694E00C949D0780916C
:100FE00016040E947302892B59F00E94AA03609391
:100FF0002004709321048093220490932304089585
:101000000E94AA036093240470932504809326040D
:1010100090932704809115048260809315040895AD
:10102000FC0101900020E9F73197AF01481B590BF3
:10103000BC0184EC93E00C94D7048F929F92AF9202
:10104000BF920F931F93CF93DF93CDB7DEB7A197D6
:101050000FB6F894DEBF0FBECDBF19A2423008F420
:101060004AE08E010F5D1F4F842E912CB12CA12CD4
:10107000A50194010E94FF14E62FB901CA01EA30CC
:10108000F4F4E05DD801EE938D01232B242B252B66
:1010900079F790E080E0109719F0CD010E941008D8
:1010A000A1960FB6F894DEBF0FBECDBFDF91CF91F2
:1010B0001F910F91BF90AF909F908F900895E95C22
:1010C000E1CFCF93DF930E941008EC018BE491E015
:1010D0000E9410088C0F9D1FDF91CF9108954F92B1
:1010E0005F926F927F928F929F92AF92BF92CF92B8
:1010F000DF92EF92FF920F931F93CF936B017C01CE
:10110000742EAC019B010E949C17882399F08EE4F9
:1011100091E0CF911F910F91FF90EF90DF90CF90D2
:10112000BF90AF909F908F907F906F905F904F9007
:101130000C94100846015701E894B7F82FEF3FEFE1
:101140004FE75FE7C501B4010E949C1781110DC0F4
:101150002FEF3FEF4FE75FE7C501B4010E94CB15CA
:1011600018161CF482E591E0D4CF2FEF3FEF4FE744
:101170005FE4C701B6010E942A1718161CF486E521
:1011800091E0C7CF2FEF3FEF4FE75FECC701B6010C
:101190000E94CB1587FDF3CF20E030E0A901C70105
:1011A000B6010E94CB1510E000E087FF0AC06DE297
:1011B00084EC93E00E945C058C01F7FAF094F7F858
:1011C000F094C0E060E070E080E09FE37C1641F0C6
:1011D00020E030E040E251E40E94D015CF5FF6CF2E
:1011E000A70196010E945F152B013C010E94491640
:1011F0004B015C014AE00E941D087C01E00EF11EDB
:10120000CC23C1F1C501B4010E9478169B01AC0149
:10121000C301B2010E945E154B015C016EE284ECD9
:1012200093E00E945C05E80EF91EC15018F120E021
:1012300030E040E251E4C501B4010E942F172B01B8
:101240003C010E9449164B01B12CA12C4AE0C5017A
:10125000B4010E941D08E80EF91EC501B4010E94E8
:1012600078169B01AC01C301B2010E945E154B01CF
:101270005C01DBCFC701CF911F910F91FF90EF90E1
:10128000DF90CF90BF90AF909F908F907F906F90A6
:101290005F904F900895CF93DF9342E00E946F08D4
:1012A000EC018BE491E00E9410088C0F9D1FDF91F0
:1012B000CF9108950E94A1171F920F920FB60F921F
:1012C00011242F933F938F939F93AF93BF9380915C
:1012D000C0039091C103A091C203B091C3033091A8
:1012E000AD0323E0230F2D3758F50196A11DB11D45
:1012F0002093AD038093C0039093C103A093C203D6
:10130000B093C3038091AE039091AF03A091B0035B
:10131000B091B1030196A11DB11D8093AE039093CE
:10132000AF03A093B003B093B103BF91AF919F916E
:101330008F913F912F910F900FBE0F901F90189596
:1013400026E8230F0296A11DB11DD2CF1F920F9246
:101350000FB60F9211242F933F934F935F936F9388
:101360007F938F939F93AF93BF93EF93FF93E091FE
:101370001401F09115010995FF91EF91BF91AF9183
:101380009F918F917F916F915F914F913F912F919D
:101390000F900FBE0F901F9018951F920F920FB6CF
:1013A0000F9211242F933F934F935F936F937F93EB
:1013B0008F939F93AF93BF93EF93FF93E0911201AD
:1013C000F09113010995FF91EF91BF91AF919F911A
:1013D0008F917F916F915F914F913F912F910F90DE
:1013E0000FBE0F901F9018951F920F920FB60F927D
:1013F00011242F933F934F935F936F937F938F931A
:101400009F93AF93BF93EF93FF93E0911001F091FF
:1014100011010995FF91EF91BF91AF919F918F912C
:101420007F916F915F914F913F912F910F900FBEE0
:101430000F901F9018951F920F920FB60F921124C4
:101440002F933F934F935F936F937F938F939F93CC
:10145000AF93BF93EF93FF93E0910E01F0910F01D3
:101460000995FF91EF91BF91AF919F918F917F91DE
:101470006F915F914F913F912F910F900FBE0F9001
:101480001F9018951F920F920FB60F9211242F9351
:101490003F934F935F936F937F938F939F93AF93FC
:1014A000BF93EF93FF93E0910C01F0910D0109952B
:1014B000FF91EF91BF91AF919F918F917F916F912C
:1014C0005F914F913F912F910F900FBE0F901F9002
:1014D00018951F920F920FB60F9211248F939F931E
:1014E0008091E1009091E100937F9093E10083FF70
:1014F0000FC01092E90091E09093EB001092EC0085
:1015000092E39093ED001092BF0398E09093F00067
:1015100082FF22C093E09093E9009091F20099231A
:1015200019F09AE39093E80090918B03992341F08E
:1015300090918B03915090938B03911101C05D9A10
:101540009091BE03992341F09091BE0391509093E6
:10155000BE03911101C0289A84FF18C08091E20057
:101560008E7E81608093E2008091E1008F7E809387
:10157000E10080918C038E7E806180938C039F912B
:101580008F910F900FBE0F901F90189580FFF7CF8F
:101590008091E2008E7E80618093E2008091E10084
:1015A0008E7E8093E10080918C038E7E8160E5CFFA
:1015B0001F920F920FB60F921124CF92DF92EF92EB
:1015C000FF920F931F932F933F934F935F936F93CC
:1015D0007F938F939F93AF93BF93EF93FF93CF939B
:1015E000DF93CDB7DEB76C97DEBFCDBF1092E900B9
:1015F0008091E80083FF25C068E0CE0145960E94F7
:10160000CA0482EF8093E8008D8987FF39C09091EA
:10161000E80090FFFCCF982F907609F034C19E89A6
:101620004F89588D2F89F88C911131C0803861F520
:1016300080918D038093F1001092F1008EEF8093E2
:10164000E8006C960FB6F894DEBF0FBECDBFDF91F9
:10165000CF91FF91EF91BF91AF919F918F917F912A
:101660006F915F914F913F912F911F910F91FF903B
:10167000EF90DF90CF900F900FBE0F901F901895B6
:101680009EEF9093E800C7CF1092F100D5CF913034
:1016900059F48111D3CF4130510581F680918D03EA
:1016A0008D7F80938D03CACF933049F48111C6CFCB
:1016B0004130510519F680918D038260F2CF95304B
:1016C00041F48091E80080FFFCCF20682093E30084
:1016D000B5CF963009F0A9C00B8D1C8D22E0109279
:1016E000E9001092890310928803F2122EC0109222
:1016F0008703109286030E9499041F8299E09983C0
:10170000FA8291E09E8390EA98879AEF99872091D8
:10171000880330918903275F3F4F3C832B838D8360
:101720001092E900109289031092880310938703A6
:101730000093860349E050E0BE016F5F7F4F80E079
:101740000E9473040E94990479CF10938703009339
:1017500086030E941302DC0112960D911C91011563
:10176000110509F451C1D801ED91FC910480F58176
:10177000E02DBE016B5E7F4FC8010995009709F00F
:101780003EC1F80100851185EACFF3E0FF120EC0DB
:101790008F89882309F440C0823061F440E862E117
:1017A00087E191E00E944004811148CF81E280935B
:1017B000EB0047CF813029F440E862E184E091E01A
:1017C000F1CF833099F70E941302DC011296ED905D
:1017D000FC908E010F5F1F4F6801E114F10479F056
:1017E000D701ED91FC910680F781E02DB801C7018A
:1017F0000995080F111DF701E084F184EECFD8019F
:101800001C92F60101900020E9F73197BF016C1995
:101810007D0940E0C601C6CF6EEE70E0FB01449149
:1018200050E080E80E94730409CF973009F4BECFDE
:10183000983021F481E08093F10000CF993009F0D5
:10184000FDCE837009F0B2CFEDE1F1E081E031E04F
:1018500096E32191222371F08093E9003093EB000D
:10186000DF0111972C912093EC009093ED008F5F96
:10187000873079F78EE78093EA001092EA008F892B
:101880008093BF03DBCE8B8D9C8D1092E90010926C
:101890008903109288039093870380938603898D30
:1018A000811192C08E899D89913A49F4813209F063
:1018B0007DCF47E050E064E071E080E0B3CF91324B
:1018C00009F074CF833269F48F89988DB0E0A0E07D
:1018D0008093000190930101A0930201B093030152
:1018E000ADCE803269F48091E80082FFFCCF67E0E2
:1018F00084E091E00E94CA048BEF8093E8009ECEC2
:10190000823209F09BCE8F8980930B01EEEFFFE7C7
:10191000859194918B3F9C4D51F1E0E0F8E08091EE
:10192000040190910501A0910601B0910701803B4F
:101930009440A105B105F1F480910B0180FD1AC01E
:10194000EE3F8AE0F80789F587E797E79183808380
:101950008091600080938A0388E19BE00FB6F89441
:10196000A895809360000FBE9093600067CEEEEF65
:10197000FAE0D5CF808191818737974709F05ECE15
:10198000A8958091600088618093600080918A03AF
:1019900080936000EE3F2AE0F20789F08091FE0A12
:1019A0009091FF0A9183808349CE8081918187370E
:1019B000980751F29093FF0A8093FE0AC5CF1092C8
:1019C000FF0A1092FE0A3ACE0E941302DC01129620
:1019D0000D911C910115110509F4E8CED801ED9186
:1019E000FC910190F081E02DBE016B5E7F4FC8013C
:1019F0000995811123CEF80100851185EBCF1816CA
:101A000019060CF41BCED2CEF1E0FF12BECE62EF6F
:101A100070E004CF1F920F920FB60F9211242F93F4
:101A20003F934F935F936F937F938F939F93AF9366
:101A3000BF93EF93FF93CF93DF9300D01F92CDB767
:101A4000DEB783B1898389819091140489278A83C1
:101A500080916B009A8189238B838B8180FF05C0E5
:101A6000E0917603F091770309958B8181FF05C0A2
:101A7000E0917803F091790309958B8182FF05C08D
:101A8000E0917A03F0917B0309958B8183FF05C078
:101A9000E0917C03F0917D0309958B8184FF05C063
:101AA000E0917E03F0917F0309958B8185FF05C04E
:101AB000E0918003F091810309958B8186FF05C039
:101AC000E0918203F091830309958B8187FF05C024
:101AD000E0918403F0918503099589818093140432
:101AE0000F900F900F90DF91CF91FF91EF91BF91E9
:101AF000AF919F918F917F916F915F914F913F91A6
:101B00002F910F900FBE0F901F9018951F920F925C
:101B10000FB60F9211242F933F934F935F936F93C0
:101B20007F938F939F93AF93BF93EF93FF93809196
:101B30003B0490913C042091390430913A04AC016B
:101B4000421B530B5093300440932F0490933A045C
:101B500080933904809174049091750420917204EB
:101B600030917304AC01421B530B509369044093B2
:101B70006804909373048093720480912E048130E2
:101B800021F080912E04823021F48CE294E00E94B6
:101B9000060680916704813021F0809167048230CD
:101BA00021F485E694E00E940606FF91EF91BF9133
:101BB000AF919F918F917F916F915F914F913F91E5
:101BC0002F910F900FBE0F901F901895CF93DF931A
:101BD000E4ECF3E01382128288EE93E0A0E0B0E040
:101BE00084839583A683B78381E391E09183808387
:101BF0008FEF9FEF9587848783B180931404ECE285
:101C0000F4E01282148213821582168217821086E3
:101C1000128611862CE231E03487238716861586DA
:101C2000108A1786128A118A148A138A40E050E0BB
:101C300060EA70E4458B568B678B708F80E090E094
:101C4000A0E0BFE3818F928FA38FB48F158E168E85
:101C5000178E10A211A212A213A214A215A216A2EC
:101C600017A210A611A612A613A614A615A616A6AC
:101C700017A610AA11AA12AA13AA14AA15AA16AA7C
:101C800017AA10AEC9E4D1E0D183C08313AE15AE5C
:101C900014AE10926A0410926B0410926C041092AD
:101CA0006D0410926F0410926E04309371042093AF
:101CB00070041092730410927204109275041092C2
:101CC00074041092770410927604109279041092A2
:101CD000780440937A0450937B0460937C0470935F
:101CE0007D0480937E0490937F04A0938004B0933E
:101CF0008104109282041092830410928404109242
:101D00008504109286041092870410928804109221
:101D1000890410928A0410928B0410928C04109201
:101D20008D0410928E0410928F04109290041092E1
:101D300091041092920410929304109294041092C1
:101D400095041092960410929704109298041092A1
:101D5000990410929A0410929B0410929C04109281
:101D60009D0483E491E092AF81AF8EED95E3AAE705
:101D7000BCE380939E0490939F04A093A004B0932F
:101D8000A10486E696E6AEEEB0E48093A2049093BA
:101D9000A304A093A404B093A50480E190E09093E1
:101DA000A7048093A604E5E1F4E010821382148274
:101DB000158216828AE090E0A0E0B0E087839087E9
:101DC000A187B28713861486158616861786108A11
:101DD000118A128A80E090E0A6ECB2E4838B948BA7
:101DE000A58BB68B8BE0818384E08283DF91CF91DA
:101DF0000895789484B5826084BD84B5816084BD83
:101E000085B5826085BD85B5816085BD80916E0098
:101E1000816080936E0010928100809181008260C9
:101E20008093810080918100816080938100809106
:101E30008000816080938000809191008260809317
:101E40009100809191008160809391008091900039
:101E50008160809390008091C10084608093C10074
:101E60008091C10082608093C1008091C100816037
:101E70008093C1008091C30081608093C3008091F2
:101E8000C00082608093C0008091C2008160809316
:101E9000C20080917A00846080937A0080917A00F9
:101EA000826080937A0080917A00816080937A00CA
:101EB00080917A00806880937A001092BF0310921C
:101EC0008D0310928C038091D70081608093D7009E
:101ED00080EA8093D80089B5806189BD89B5826028
:101EE00089BD09B400FEFDCF61E070E080E090E0C4
:101EF0000E94CF038091D8008F7C80618093D800AE
:101F00008091E000807F8093E0008091E1008E7EF0
:101F10008093E1008DE08093E200559A209A8FEF44
:101F20009FEF9093D1038093D0038BE591E00E94C3
:101F300061082E98269A2D98259A2A98229A2998EF
:101F4000219A2F98279AF8948AEA8093800089E151
:101F50008093810084EA91E09093870080938600CB
:101F6000109289001092880010928B0010928A00C3
:101F700010928D0010928C0078948AE591E00E9476
:101F8000610889E691E00E94610824982C9A6A9879
:101F9000729A6E98769A8098889A6DEC77E084E0D1
:101FA0000E94DD0584EE97E0909315018093140163
:101FB00080916A008F7C806180936A00EE9A6CB198
:101FC000262F30E0359527953595279583B1422FFB
:101FD0004170682F70E034E0759567953A95E1F7A8
:101FE000622761708CE294E00E949D07F8948091D2
:101FF0003B0490913C0410923C0410923B041092DC
:102000003A041092390478946CB1262F30E035955B
:1020100027953595279583B1422F4170682F70E041
:1020200054E0759567955A95E1F76227617085E6EA
:1020300094E00E949D07F894809174049091750437
:10204000109275041092740410927304109272042A
:10205000789488E691E00E946108F8941092C0009C
:102060008BE08093C1001092C2001092C30089EFF0
:102070008093D10084E080937200789440E050E037
:1020800060EA70E440934104509342046093430437
:102090007093440410925504109256041092570401
:1020A0001092580480E090E0A0E0BFE380934504E4
:1020B00090934604A0934704B093480440937A0455
:1020C00050937B0460937C0470937D0410928E0483
:1020D00010928F04109290041092910480937E04C9
:1020E00090937F04A0938004B093810460E080917A
:1020F00016040E94790380911604843018F087300A
:1021000009F0ADC088E791E00E9461088091160453
:10211000882309F496C0813009F062C08FEE97E001
:102120009093130180931201809169008F738064F2
:1021300080936900EB9A61E0809117040E94790313
:1021400060E085E10E94790360E086E10E94790306
:1021500081E090E0909317018093160101E020E068
:1021600030E040E85FE3CA01B9010E9408078FEA46
:1021700091E00E94610886EB91E00E94610861E0B5
:102180008DE00E949C0210922E0470E060E08CE2D0
:1021900094E00E9471071092670470E060E085E6A9
:1021A00094E00E945807C2E0D0E083E0282E312C52
:1021B00080911601909117018330910509F4BAC0FE
:1021C0000CF060C08130910509F466C0029709F4F3
:1021D00092C080E090E0892B59F30E940000E8CF84
:1021E000823071F48FEE97E090930F0180930E018F
:1021F00080916900837F846080936900E99A9BCF16
:10220000833071F48FEE97E090930D0180930C0171
:10221000809169008C7F816080936900E89A8BCF00
:10222000873009F088CF8FEE97E090931501809367
:10223000140180916A008F7C806180936A00EE9A1D
:102240007ACF8FEE97E090931101809310018091E7
:1022500069008F7C806180936900EA9A6CCF82E983
:1022600091E00E946108E0911604E8508FEFEA3097
:1022700020F4F0E0ED5DFE4F80816FEE77E00E948C
:10228000DD0559CF8430910509F48FC0059709F019
:10229000A0CF0E948A079DCF8FEB91E00E9461083A
:1022A0001092AC031092AB031092AA031092A603F3
:1022B0001092A7031092A8031092A9031092A203F0
:1022C0001092A3031092A4031092A50310929E03F0
:1022D00010929F031092A0031092A10310929A03F0
:1022E00010929B0310929C0310929D03D0931701B0
:1022F000C09316016ECF8BE491E00E9410088BEC26
:1023000091E00E9461080E94CA0264E670E080E0E9
:1023100090E00E94CF030E94CA02609396037093DC
:10232000970380939803909399033092170120921A
:1023300016014FCF87ED91E00E9461082DE233E94D
:1023400049EC5EE360919603709197038091980346
:10235000909199030E942F176B017C01C092920308
:10236000D0929303E0929403F092950383EE91E070
:102370000E941008C701B6010E944B098091920388
:1023800090919303A0919403B09195038093A60339
:102390009093A703A093A803B093A90384E090E0CF
:1023A000909317018093160114CF86EF91E00E945D
:1023B000610880912E04811189C280916704811186
:1023C00085C280E092E00E946108C090A603D09090
:1023D000A703E090A803F090A90320E030E040EAD2
:1023E00051E4C701B6010E94CB1518160CF482C146
:1023F00020E030E048EC50E4C701B6010E942A1703
:10240000181654F020E030E048EB50E4C701B60164
:102410000E94CB1587FF6EC188E192E00E9461089F
:102420008091AC0381608093AC034090A2035090F4
:10243000A3036090A4037090A503A701960160E038
:1024400070E080EC90E40E945E154B015C0180928C
:10245000A2039092A303A092A403B092A503A301A8
:1024600092010E945E1560939E0370939F03809378
:10247000A0039093A103C501B4019F7720E030E051
:1024800040E05FE30E942A1718160CF0D5C089E2DD
:1024900092E00E94610860918E0370918F03809199
:1024A0009003909191039F7720E030E040E251E467
:1024B0000E942A1718160CF0F0C010929A0310927E
:1024C0009B0310929C0310929D0388E492E00E946B
:1024D000100842E0C701B6010E946F0884E692E04E
:1024E0000E9410086091A2037091A3038091A4033D
:1024F0009091A50342E00E946F0882E792E00E945B
:10250000100860919E0370919F038091A0039091A9
:10251000A10342E00E946F088DE792E00E9410083C
:1025200060919A0370919B0380919C0390919D030D
:102530000E944B0926E636E646E950E46091A20384
:102540007091A3038091A4039091A5030E942F177B
:102550006B017C012AE037ED43E25CE360919A0372
:1025600070919B0380919C0390919D030E942F1773
:102570009B01AC01C701B6010E945F156B017C0194
:1025800023E333E343E150E460919E0370919F03A2
:102590008091A0039091A1030E942F179B01AC0191
:1025A000C701B6010E945F156B017C01C0928E03CA
:1025B000D0928F03E0929003F092910385E892E02D
:1025C0000E941008C701B6010E944B09C0908E03FB
:1025D000D0908F03E0909003F0909103C701B60173
:1025E0009F772DEC3CEC4CE45EE30E94CB1587FD1D
:1025F00011C06091A2037091A3038091A4039091F4
:10260000A5039F772DEC3CEC4CEC5DE30E94CB15D1
:1026100087FF58C010928E0310928F031092900380
:10262000109291031092A2031092A3031092A4039C
:102630001092A5030E948A078091AC038E7F80933D
:10264000AC03C090AA03D090AB039FEFC91AD90A7C
:10265000D092AB03C092AA0386E693E00E941008D2
:102660000D2C000CEE08FF084AE0C701B601F7FE8A
:102670000DC06DE284EC93E00E945C05662777272D
:10268000CB016C197D098E099F094AE00E941D0843
:102690008BE491E00E94100829CEA501940160917D
:1026A0009A0370919B0380919C0390919D030E94DB
:1026B0005F1560939A0370939B0380939C039093A0
:1026C0009D0303CF20E030E0A901C701B6010E94BD
:1026D000CB1500E0A701960187FF07C060E070E01E
:1026E00080E89FE30E940807A7CF60E070E080E8E1
:1026F0009FEBF8CF20E030E048EB50E4C701B60193
:102700000E942A1787FD56C020E030E048EC50E4D4
:10271000C701B6010E94CB1518160CF44BC086EA0F
:1027200092E00E9461088091AC0384608093AC03C6
:102730001091AC0312FF85CF8AEB92E00E946108F2
:1027400060E070E084E393E40E94B606C0909E04CB
:10275000D0909F04E090A004F090A10420E030E02D
:1027600048EC51E460E070E080E291E40E940401F2
:10277000A701960166E676E682E492E40E94D0150F
:102780000E9442168CE294E00E94AA06A7019601DC
:1027900063E373E38BEB92E40E94D0150E94421630
:1027A00085E694E00E94AA060E9401041B7F109314
:1027B000AC03BECF20E030E040EA51E4C701B601EF
:1027C0000E942A1718160CF03CCF8BED92E00E9465
:1027D00061088091AC0382608093AC030E94BD14B9
:1027E00010929603109297031092980310929903F7
:1027F0002091AC0321FF25CF68E671E00E943015DF
:10280000BC01990F880B990B0E947A166B017C0111
:102810008AEE92E00E94610887E093E00E9410082F
:10282000C701B6010E944B09C701B6010E94B60656
:102830008FE293E00E9461080E94CA026AE070E0A1
:1028400080E090E00E94CF030E94CA02609396034A
:102850007093970380939803909399032DE233E943
:1028600049EC5EE30E942F176B017C01C09292033A
:10287000D0929303E0929403F09295038BE393E05C
:102880000E941008C701B6010E944B0920E030E009
:1028900040EA51E460919203709193038091940314
:1028A000909195030E94CB1587FF04C08091AC03E3
:1028B0008D7FC5CE01E020E030E040EE50E460E0E6
:1028C00070E080E291E40E940807F0CF65E070E0DC
:1028D00080E090E00E94CF038DE493E00E946108C5
:1028E000B0CE8F929F92AF92BF92CF92DF92EF9233
:1028F000FF92CF93DF93EC01688179818A819B817C
:10290000611571058105910521F464E279ED8BE58E
:1029100097E02DE133EF41E050E00E94CD144901F2
:102920005A019B01AC01A7EAB1E40E94EC146B01CF
:102930007C01ACEEB4EFA50194010E94FA14DC0115
:10294000CB018C0D9D1DAE1DBF1DB7FF03C00197B0
:10295000A109B04888839983AA83BB839F77DF91BD
:10296000CF91FF90EF90DF90CF90BF90AF909F906E
:102970008F9008950E947114089588E191E00E945B
:1029800071140895B0E0A0E08093180190931901AC
:10299000A0931A01B0931B010895052E97FB1EF416
:1029A00000940E94E41457FD07D00E94FF1407FC16
:1029B00003D04EF40C94E414509540953095219535
:1029C0003F4F4F4F5F4F089590958095709561955B
:1029D0007F4F8F4F9F4F08950E942115A59F900D07
:1029E000B49F900DA49F800D911D11240895B7FFF1
:1029F0000C94EC140E94EC14821B930B0895A1E23A
:102A00001A2EAA1BBB1BFD010DC0AA1FBB1FEE1F68
:102A1000FF1FA217B307E407F50720F0A21BB30BB3
:102A2000E40BF50B661F771F881F991F1A9469F72F
:102A300060957095809590959B01AC01BD01CF018B
:102A40000895A29FB001B39FC001A39F700D811D87
:102A50001124911DB29F700D811D1124911D0895A7
:102A600097FB072E16F4009407D077FD09D00E943B
:102A70004A1507FC05D03EF4909581959F4F089527
:102A8000709561957F4F0895EE0FFF1F0590F491AB
:102A9000E02D0994AA1BBB1B51E107C0AA1FBB1F55
:102AA000A617B70710F0A61BB70B881F991F5A95DA
:102AB000A9F780959095BC01CD0108955058BB278A
:102AC000AA270E9476150C94F0160E94E21638F0A0
:102AD0000E94E91620F039F49F3F19F426F40C9473
:102AE000DF160EF4E095E7FB0C94D916E92F0E944F
:102AF000011758F3BA17620773078407950720F088
:102B000079F4A6F50C9423170EF4E0950B2EBA2F4A
:102B1000A02D0B01B90190010C01CA01A0011124E3
:102B2000FF27591B99F0593F50F4503E68F11A168F
:102B3000F040A22F232F342F4427585FF3CF469520
:102B400037952795A795F0405395C9F77EF41F1642
:102B5000BA0B620B730B840BBAF09150A1F0FF0F0C
:102B6000BB1F661F771F881FC2F70EC0BA0F621FF8
:102B7000731F841F48F4879577956795B795F795E8
:102B80009E3F08F0B0CF9395880F08F09927EE0F7D
:102B90009795879508950E94B51608F481E00895E9
:102BA0000E94E4150C94F0160E94E91658F00E9459
:102BB000E21640F029F45F3F29F00C94D916511128
:102BC0000C9424170C94DF160E94011768F39923C4
:102BD000B1F3552391F3951B550BBB27AA27621719
:102BE0007307840738F09F5F5F4F220F331F441F26
:102BF000AA1FA9F335D00E2E3AF0E0E832D091505A
:102C00005040E695001CCAF72BD0FE2F29D0660F46
:102C1000771F881FBB1F261737074807AB07B0E889
:102C200009F0BB0B802DBF01FF2793585F4F3AF08F
:102C30009E3F510578F00C94D9160C9424175F3FF1
:102C4000E4F3983ED4F3869577956795B795F79515
:102C50009F5FC9F7880F911D9695879597F90895FD
:102C6000E1E0660F771F881FBB1F62177307840799
:102C7000BA0720F0621B730B840BBA0BEE1F88F7A8
:102C8000E09508950E9449166894B1110C94241798
:102C900008950E94091788F09F5798F0B92F992737
:102CA000B751B0F0E1F0660F771F881F991F1AF037
:102CB000BA95C9F714C0B13091F00E942317B1E062
:102CC00008950C942317672F782F8827B85F39F061
:102CD000B93FCCF3869577956795B395D9F73EF4D0
:102CE00090958095709561957F4F8F4F9F4F089578
:102CF000E89409C097FB3EF4909580957095619596
:102D00007F4F8F4F9F4F9923A9F0F92F96E9BB274B
:102D10009395F695879577956795B795F111F8CFC7
:102D2000FAF4BB0F11F460FF1BC06F5F7F4F8F4F32
:102D30009F4F16C0882311F096E911C0772321F028
:102D40009EE8872F762F05C0662371F096E8862FC0
:102D500070E060E02AF09A95660F771F881FDAF717
:102D6000880F9695879597F90895990F0008550F44
:102D7000AA0BE0E8FEEF16161706E807F907C0F001
:102D800012161306E407F50798F0621B730B840B09
:102D9000950B39F40A2661F0232B242B252B21F4E3
:102DA00008950A2609F4A140A6958FEF811D811D83
:102DB000089597F99F6780E870E060E008959FEFBD
:102DC00080EC089500240A941616170618060906C2
:102DD000089500240A941216130614060506089591
:102DE000092E0394000C11F4882352F0BB0F40F419
:102DF000BF2B11F460FF04C06F5F7F4F8F4F9F4F59
:102E0000089557FD9058440F551F59F05F3F71F0DA
:102E10004795880F97FB991F61F09F3F79F0879541
:102E20000895121613061406551FF2CF4695F1DFCA
:102E300008C0161617061806991FF1CF869571055A
:102E4000610508940895E894BB2766277727CB018E
:102E500097F908950E94B51608F48FEF08950E941F
:102E600042170C94F0160E94E21638F00E94E91600
:102E700020F0952311F00C94D9160C94DF16112430
:102E80000C9424170E94011770F3959FC1F3950FBE
:102E900050E0551F629FF001729FBB27F00DB11DDE
:102EA000639FAA27F00DB11DAA1F649F6627B00D6E
:102EB000A11D661F829F2227B00DA11D621F739F57
:102EC000B00DA11D621F839FA00D611D221F749F65
:102ED0003327A00D611D231F849F600D211D822FAC
:102EE000762F6A2F11249F5750409AF0F1F08823D3
:102EF0004AF0EE0FFF1FBB1F661F771F881F915000
:102F00005040A9F79E3F510580F00C94D9160C94BF
:102F100024175F3FE4F3983ED4F386957795679541
:102F2000B795F795E7959F5FC1F7FE2B880F911D29
:102F30009695879597F908950E94B516880B990B79
:102F4000089581E090E0F8940C94A617F894FFCFD0
:102F5000FFFFFFFF00E1000000000000110411046A
:102F600011041104110401000100000000C180815E
:102F700000000004050607FFFF0301020000000037
:102F8000005C05D7047D057205C30581059F05001A
:102F900000000058070000000071070D0A006E6174
:102FA0006E00696E66006F7666002F696E69744DFB
:102FB0006F746F72732829002F696E6974456E6390
:102FC0006F64657273282900417474616368696E67
:102FD000672072616E676566696E64657220495329
:102FE0005200417474616368696E672072616E6734
:102FF0006566696E6465722050435F49535200698B
:10300000646C652829007365744C45442829005375
:10301000544154455F424547494E0053544154453D
:103020005F53454E53450053544154455F544849FE
:103030004E4B0072616E676566696E6465722064EE
:103040006973743D200053544154455F414354001B
:10305000636865636B4D6F74696F6E2049532063BD
:103060006F6D706C65746500544849532049532056
:10307000415050524F41434800617070726F61631C
:1030800068436F6E74726F6C6C65723A2020616376
:103090007469766174656400617070726F616368F1
:1030A000436F6E74726F6C6C65723A20206D65614F
:1030B000733D2000202065545F64656C7461543D4D
:1030C000200020206464745F65543D200020206946
:1030D00045743D2000617070726F616368436F6E6C
:1030E00074726F6C6C65723A2020616374756174E0
:1030F000696F6E3D20005448495320495320574181
:103100004C4C20464F4C4C4F570077616C6C466FCF
:103110006C6C6F77436F6E74726F6C6C65723A2073
:103120002061637469766174656400544849532072
:1031300049532057414E4445520077616E64657291
:10314000436F6E74726F6C6C65723A2020616374A9
:103150006976617465640077616E646572436F6E51
:1031600074726F6C6C65723A202073656C65637461
:103170006564207475726E416E676C653D20005207
:103180004F4D49205455524E45440057414E4445F9
:10319000522044495354414E43453D2000636865E5
:1031A000636B4D6F74696F6E204E4F5420636F6D6B
:1031B000706C6574650074657374497465726174CC
:0631C000696F6E3D200066
:00000001FF
